:100000000C942A000C943F000C943F000C943F0089
:100010000C943F000C943F000C943F000C943F0064
:100020000C943F000C943F000C943F000C943F0054
:100030000C943F000C943F000C943F000C943F0044
:100040000C943F000C943F000C943F000C943F0034
:100050000C943F0011241FBECFE5D8E0DEBFCDBF1A
:1000600010E0A0E6B0E0E2EDF4E002C005900D92F1
:10007000A837B107D9F70E9430020C9467020C949C
:100080000000CF93DF9341B3E8E6F0E081E090E039
:10009000EC01008002C0CC0FDD1F0A94E2F7DC0106
:1000A000028002C0AA0FBB1F0A94E2F7BC010480C1
:1000B00002C0660F771F0A94E2F79C01068002C017
:1000C000220F331F0A94E2F7AC2B6A2B262B2095C4
:1000D000242321BB21B3E0E6F0E0DC01008002C074
:1000E000AA0FBB1F0A94E2F7BC01028002C0660F90
:1000F000771F0A94E2F7AC01048002C0440F551F39
:100100000A94E2F7068002C0880F991F0A94E2F76A
:100110006A2B462B842B822B81BB8FEF82BBDF9116
:10012000CF9108950F931F93CF93DF9300D000D00A
:10013000CDB7DEB71A821982C5C032B3E0E6F0E06F
:1001400081E090E08C01008002C0000F111F0A9432
:10015000E2F7DC01028002C0AA0FBB1F0A94E2F79B
:10016000BC01048002C0660F771F0A94E2F7AC015D
:10017000068002C0440F551F0A94E2F7202F2A2B55
:10018000262B242B232B22BBE981FA81EE0FFF1FA4
:10019000E05AFF4F008002C0880F991F0A94E2F7CF
:1001A0008095909592B3892382BB1C821B8280C06C
:1001B00080B3EB81FC81EE0FFF1FE859FF4F90E009
:1001C000008002C0959587950A94E2F780FD6BC088
:1001D00080B3EB81FC81EE0FFF1FE859FF4F90E0E9
:1001E000008002C0959587950A94E2F780FFF0CFD2
:1001F00089819A8181309105F1F01CF4892B39F0C5
:1002000052C08230910559F10397E9F14CC08B81BE
:100210009C81892B09F45DC08B819C81019709F435
:100220005AC08B819C81029709F457C08B819C81B5
:100230000397C9F554C08B819C81892B09F451C067
:100240008B819C81019709F44EC08B819C81029720
:1002500009F44BC08B819C81039729F548C08B81A1
:100260009C81892B09F445C08B819C81019709F4FD
:1002700042C08B819C81029709F43FC08B819C8195
:10028000039789F43CC08B819C81892BD1F18B81B0
:100290009C810197C1F18B819C810297B1F18B8187
:1002A0009C810397A1F18B819C8101969C838B8318
:1002B0008B819C8104970CF47BCF89819A81019674
:1002C0009A83898389819A8104970CF436CF8EE4CE
:1002D0001FC087E31DC084E31BC081E319C081E216
:1002E00017C088E315C085E313C082E311C080E323
:1002F0000FC089E30DC086E30BC083E309C08DE323
:1003000007C08FE205C08AE203C08DE201C08BE224
:100310000F900F900F900F90DF91CF911F910F9141
:10032000089588B3877F88BB8BE49DE10197F1F73F
:1003300000C0000088B3886088BB08958AB38F70BE
:100340008ABB88B3846088BB88B38D7F88BB0E94DA
:1003500091018FEF8ABB88B38B7F88BB0895CF93C1
:10036000C82F0E949E01CBBB88B3897F88BB89EFD1
:1003700090E00197F1F700C000000E949101CF9139
:10038000089581E00E94AF010895813029F480E84A
:10039000860F0E94AF010895823021F480EC860F11
:1003A0000E94AF01089587E893E10197F1F700C03B
:1003B00000000E949E0187B38E6087BB88B3817F57
:1003C00088BB8FEF8ABB85EA9EE00197F1F700C0FA
:1003D00000000E94C10188E30E94AF0186E00E94F4
:1003E000AF0180E80E94AF018FE00E94AF01089545
:1003F000CF93C82F0E949E01CBBB88B38B7F88BB55
:1004000088B3826088BB0E949101CF9108950F93B9
:100410001F93CF93DF938C01C0E0D0E018C02196EA
:100420000F5F1F4F0E94F801C031D10529F460E031
:1004300082E00E94C5010BC0C032D10541F40E9488
:10044000C10160E081E00E94C501C0E0D0E0F80198
:1004500080818111E4CFDF91CF911F910F91089599
:10046000CF93DF9300D01F92CDB7DEB70E94D301A8
:100470000E9441001B821A8280E790E00E940702DE
:1004800087EA91E60197F1F700C000000E94920010
:1004900089838981813219F08E3491F303C00E94DF
:1004A000C101EECF8A819B8140974CF489810E94E3
:1004B000F8018A819B8101969B838A83E1CF1B820D
:1004C0001A820E94C10189810E94F801D9CFF89453
:0204D000FFCF5C
:1004D20004000500060007000000010002000300FE
:0804E20077656C636F6D650026
:00000001FF
