S01200006C61624C4344414D49542E73726563E5
S11300000C942A000C943F000C943F000C943F0085
S11300100C943F000C943F000C943F000C943F0060
S11300200C943F000C943F000C943F000C943F0050
S11300300C943F000C943F000C943F000C943F0040
S11300400C943F000C943F000C943F000C943F0030
S11300500C943F0011241FBECFE5D8E0DEBFCDBF16
S113006010E0A0E6B0E0E0E2F2E002C005900D92FC
S1130070A037B107D9F70E9407010C940E010C9424
S1130080000088B3877F88BB83ED90E30197F1F785
S113009000C0000088B3886088BB08951ABA88B38A
S11300A0846088BB88B38D7F88BB0E9441008FEF3A
S11300B08ABB88B38B7F88BB0895CF93C82F0E94D7
S11300C04E008BB38F709C2F907F892B8BBB88B392
S11300D0897F88BB0E9441002BB330E1C39FC001DC
S11300E01124922F9F70892B8BBB88B3897F88BB87
S11300F00E944100CF91089581E00E945D0008951F
S1130100813039F4603168F480E8860F0E945D0024
S11301100895823031F4603120F480EC860F0E941F
S11301205D00089587E893E10197F1F700C00000AE
S11301300E944E0087B38E6087BB88B3817F88BBE3
S11301408FEF8ABB85EA9EE00197F1F700C00000BB
S11301500E947C0082E00E945D0088E20E945D00B3
S113016086E00E945D0080E80E945D008FE00E94AE
S11301705D000895CF93C82F8BB38F709C2F907F11
S1130180892B8BBB88B3826088BB88B38B7F88BB89
S11301900E9441002BB330E1C39FC0011124922F70
S11301A09F70892B8BBB88B3826088BB88B38B7F9D
S11301B088BB0E944100CF9108950F931F93CF9362
S11301C0DF938C01C0E0D0E019C021960F5F1F4F70
S11301D00E94BA00C031D10529F460E081E00E9498
S11301E080000CC0CE018097029740F40E947C00EE
S11301F060E080E00E948000C0E0D0E0F8018081EF
S11302008111E3CFDF91CF911F910F9108950E9447
S1130210920080E690E00E94DD00FFCFF894FFCFCB
S11302204C6561726E2D496E2D44657074680000D2
S9030000FC
