:020000040800F2
:1000000014040020410300083503000835030008EC
:1000100035030008350300083503000880B400AF3D
:10002000034B044A1A6000BFBD4680BC704700BF46
:10003000140400207900000880B400AF034B044A88
:100040001A6000BFBD4680BC704700BF140400208A
:100050009900000880B500AF012000F08DF800BFC6
:1000600080BD80B400AF034B02221A7000BFBD46B2
:1000700080BC70471804002080B500AF054B0022FB
:100080001A70012000F078F8024B02221A7000BFAB
:1000900080BD00BF1804002080B500AF054B0122D1
:1000A0001A70002000F068F8024B02221A7000BF9C
:1000B00080BD00BF1804002080B400AF034B044A89
:1000C0001A6000BFBD4680BC704700BF20040020FE
:1000D000ED00000880B500AF034B00221A70FFF757
:1000E0009DFF00BF80BD00BF1C04002080B500AF95
:1000F000044B01221A70FFF79FFF034B034A1A605B
:1001000000BF80BD1C040020200400201101000855
:1001100080B500AF064B02221A70064B1B681846CA
:1001200000F00EF8044B054A1A6000BF80BD00BF06
:100130001C0400200000002020040020D50000083E
:1001400080B483B000AF786002E07B68013B7B60E5
:100150007B68002BF9D100BF0C37BD4680BC7047CF
:1001600080B400AF034B1B68DBB21846BD4680BCB1
:10017000704700BF0808014080B483B000AF7860CA
:100180007B68012B06D10A4B1B68094A43F40053D4
:10019000136008E07B68002B05D1054B1B68044AFF
:1001A00023F40053136000BF0C37BD4680BC70477A
:1001B0000C08014080B400AF0F4B1B680E4A43F09F
:1001C000040313600D4B1B680C4A23F47003136087
:1001D0000A4B0A4A1B681360094B1B68084A23F440
:1001E00070031360064B1B68054A43F0223313600B
:1001F00000BFBD4680BC7047181002400008014097
:100200000408014080B500AFFFF7D4FF00F04EF8BE
:10021000FFF720FF054B064A1A60064B064A1A6094
:10022000064B074A1A6000BF80BD00BF28040020AB
:100230007902000820040020D500000814040020E2
:100240006300000880B500AFFFF7DCFF064B1B68BA
:100250009847064B1B689847054B1B689847054B0A
:100260001B689847F2E700BF2C04002028040020F8
:10027000200400201404002080B500AF084B0022A9
:100280001A7000F04DF80246064B1A60054B1A68CA
:10029000054B1B689A4201D9FFF70EFF00BF80BDD6
:1002A000240400200C0000200400002080B400AFD3
:1002B000034B044A1A6000BFBD4680BC704700BFB4
:1002C0002C040020C902000880B500AF064B0022B4
:1002D0001A70FFF745FF03461A46044B1A60044B99
:1002E000044A1A6000BF80BD2504002010000020D1
:1002F0002C040020F902000880B500AF054B012254
:100300001A703C20FFF71CFF034B044A1A6000BF21
:1003100080BD00BF250400202C040020C902000875
:1003200080B400AF024B1B681846BD4680BC7047C6
:100330001000002080B500AF00F002F800BF80BDC3
:1003400080B586B000AF1A4A1A4BD31A7B601A4B9D
:100350007B61184B3B610023FB600AE07A69531C08
:100360007B613B69591C396112781A70FB68013353
:10037000FB60FB687A689A42F0D8104A104BD31A97
:100380003B600F4B3B610023BB6007E03B695A1C9D
:100390003A6100221A70BB680133BB60BB683A68DF
:1003A0009A42F3D8FFF74EFF00BF1837BD4680BD15
:1003B0000800002000000020C403000814040020EE
:0403C0000800002011
:0803C4003C00000014000000E1
:0400000508000000EF
:00000001FF
