:100000000C942A000C945B000C947A000C949900D8
:100010000C9434000C9434000C9434000C94340090
:100020000C9434000C9434000C9434000C94340080
:100030000C9434000C9434000C9434000C94340070
:100040000C9434000C9434000C9434000C94340060
:100050000C94340011241FBECFE5D8E0DEBFCDBF25
:100060000E9449000C94B8000C94000085B7816090
:1000700085BF85B78C6085BF85B785BF8BB780622C
:100080008BBF8BB780648BBF8BB780688BBF789436
:1000900008950E94360081B3806281BB81B3806481
:1000A00081BB81B3806881BB82B382BB82B382BBD8
:1000B00082B382BBF9CF1F920F920FB60F92112419
:1000C0002F938F939F9382B3806282BB2FE986E840
:1000D00091E0215080409040E1F700C0000082B3E1
:1000E0008F7D82BB9F918F912F910F900FBE0F90AC
:1000F0001F9018951F920F920FB60F9211242F93F5
:100100008F939F9382B3806482BB2FE986E891E04E
:10011000215080409040E1F700C0000082B38F7B07
:1001200082BB9F918F912F910F900FBE0F901F90C8
:1001300018951F920F920FB60F9211242F938F9341
:100140009F9382B3806882BB2FE986E891E02150BB
:1001500080409040E1F700C0000082B38F7782BBFF
:100160009F918F912F910F900FBE0F901F90189518
:04017000F894FFCF31
:00000001FF
