:100000000C942A000C9434000C9434000C943400AA
:100010000C9434000C9434000C9434000C94340090
:100020000C9434000C9434000C9434000C94340080
:100030000C9434000C9434000C9434000C94340070
:100040000C9434000C9434000C9434000C94340060
:100050000C94340011241FBECFE5D8E0DEBFCDBF25
:100060000E9436000C947F000C94000081B3806ED7
:1000700081BB45E050E060E070E018C022B381E051
:1000800090E0042E02C0880F991F0A94E2F7822B99
:1000900082BB2FE38DE093E0215080409040E1F758
:1000A00000C000004F5F5F4F6F4F7F4F48305105DA
:1000B0006105710518F347E050E060E070E019C099
:1000C00022B381E090E0042E02C0880F991F0A94A9
:1000D000E2F78095822382BB2FE38DE093E02150ED
:1000E00080409040E1F700C0000041505109610993
:1000F0007109453051056105710510F7BACFF894C3
:02010000FFCF2F
:00000001FF
